{
  "contractName": "DMNK",
  "abi": [
    {
      "inputs": [],
      "stateMutability": "nonpayable",
      "type": "constructor"
    },
    {
      "anonymous": false,
      "inputs": [
        {
          "indexed": false,
          "internalType": "address",
          "name": "gameAddress",
          "type": "address"
        }
      ],
      "name": "GameCanceled",
      "type": "event"
    },
    {
      "anonymous": false,
      "inputs": [
        {
          "indexed": false,
          "internalType": "address",
          "name": "gameAddress",
          "type": "address"
        },
        {
          "indexed": false,
          "internalType": "address",
          "name": "alice",
          "type": "address"
        }
      ],
      "name": "GameCreated",
      "type": "event"
    },
    {
      "anonymous": false,
      "inputs": [
        {
          "indexed": false,
          "internalType": "address",
          "name": "gameAddress",
          "type": "address"
        }
      ],
      "name": "GameFinished",
      "type": "event"
    },
    {
      "anonymous": false,
      "inputs": [
        {
          "indexed": false,
          "internalType": "address",
          "name": "gameAddress",
          "type": "address"
        },
        {
          "indexed": false,
          "internalType": "address",
          "name": "alice",
          "type": "address"
        },
        {
          "indexed": false,
          "internalType": "address",
          "name": "bob",
          "type": "address"
        },
        {
          "indexed": false,
          "internalType": "address",
          "name": "currentTurn",
          "type": "address"
        }
      ],
      "name": "GameStarted",
      "type": "event"
    },
    {
      "inputs": [],
      "name": "getQueueLength",
      "outputs": [
        {
          "internalType": "uint256",
          "name": "",
          "type": "uint256"
        }
      ],
      "stateMutability": "view",
      "type": "function"
    },
    {
      "inputs": [
        {
          "internalType": "address",
          "name": "initiator",
          "type": "address"
        },
        {
          "internalType": "uint256",
          "name": "deposit",
          "type": "uint256"
        }
      ],
      "name": "cancel",
      "outputs": [],
      "stateMutability": "nonpayable",
      "type": "function"
    },
    {
      "inputs": [
        {
          "internalType": "address",
          "name": "winner",
          "type": "address"
        },
        {
          "internalType": "uint256",
          "name": "gain",
          "type": "uint256"
        }
      ],
      "name": "complete",
      "outputs": [],
      "stateMutability": "nonpayable",
      "type": "function"
    },
    {
      "inputs": [
        {
          "internalType": "uint256",
          "name": "range_from",
          "type": "uint256"
        },
        {
          "internalType": "uint256",
          "name": "range_to",
          "type": "uint256"
        }
      ],
      "name": "play",
      "outputs": [],
      "stateMutability": "payable",
      "type": "function"
    }
  ],
  "bytecode": "0x608060405234801561001057600080fd5b50336000806101000a81548173ffffffffffffffffffffffffffffffffffffffff021916908373ffffffffffffffffffffffffffffffffffffffff160217905550613b9a806100606000396000f3fe608060405260043610620000445760003560e01c80637bc49a95146200004957806398590ef91462000069578063b8f770051462000097578063e1e5a82e14620000c7575b600080fd5b62000067600480360381019062000061919062000e05565b620000f5565b005b3480156200007657600080fd5b506200009560048036038101906200008f919062000eb1565b620004c2565b005b348015620000a457600080fd5b50620000af62000691565b604051620000be919062000f09565b60405180910390f35b348015620000d457600080fd5b50620000f36004803603810190620000ed919062000eb1565b6200069e565b005b803411158015620001065750813410155b6200011057600080fd5b600060405180608001604052803373ffffffffffffffffffffffffffffffffffffffff16815260200134815260200184815260200183815250905060006200015a60018362000930565b905080602001511562000431576000816000015190508073ffffffffffffffffffffffffffffffffffffffff1663f9346824846040518263ffffffff1660e01b8152600401620001ab919062000fa5565b600060405180830381600087803b158015620001c657600080fd5b505af1158015620001db573d6000803e3d6000fd5b50505050620001ec60018262000b46565b6001600260008373ffffffffffffffffffffffffffffffffffffffff1673ffffffffffffffffffffffffffffffffffffffff16815260200190815260200160002060006101000a81548160ff0219169083151502179055507f679392e0a6514bf799b2020263a1dac672fc03292a65936edb9499fed9515733818273ffffffffffffffffffffffffffffffffffffffff1663d61588d560016040518263ffffffff1660e01b8152600401620002a2919062001042565b60806040518083038186803b158015620002bb57600080fd5b505afa158015620002d0573d6000803e3d6000fd5b505050506040513d601f19601f82011682018060405250810190620002f69190620011ac565b600001518373ffffffffffffffffffffffffffffffffffffffff1663d61588d560026040518263ffffffff1660e01b815260040162000336919062001042565b60806040518083038186803b1580156200034f57600080fd5b505afa15801562000364573d6000803e3d6000fd5b505050506040513d601f19601f820116820180604052508101906200038a9190620011ac565b600001518473ffffffffffffffffffffffffffffffffffffffff1663a9b6ab8d6040518163ffffffff1660e01b815260040160206040518083038186803b158015620003d557600080fd5b505afa158015620003ea573d6000803e3d6000fd5b505050506040513d601f19601f82011682018060405250810190620004109190620011de565b60405162000422949392919062001221565b60405180910390a150620004bc565b600082604051620004429062000d7b565b6200044e919062000fa5565b604051809103906000f0801580156200046b573d6000803e3d6000fd5b5090506200047b60018262000d15565b7fb60d84e37a6658effce28870b1d123cb86f86409df5888679310c0f276e1f5d2818460000151604051620004b29291906200126e565b60405180910390a1505b50505050565b600260003373ffffffffffffffffffffffffffffffffffffffff1673ffffffffffffffffffffffffffffffffffffffff16815260200190815260200160002060009054906101000a900460ff1662000551576040517f08c379a00000000000000000000000000000000000000000000000000000000081526004016200054890620012fc565b60405180910390fd5b60008273ffffffffffffffffffffffffffffffffffffffff1682604051620005799062001353565b60006040518083038185875af1925050503d8060008114620005b8576040519150601f19603f3d011682016040523d82523d6000602084013e620005bd565b606091505b505090508062000604576040517f08c379a0000000000000000000000000000000000000000000000000000000008152600401620005fb90620013ba565b60405180910390fd5b600260003373ffffffffffffffffffffffffffffffffffffffff1673ffffffffffffffffffffffffffffffffffffffff16815260200190815260200160002060006101000a81549060ff02191690557f7951419648e6e3d9f679b4d999ce0e6548963e668cf617798a8d93493158b99133604051620006849190620013dc565b60405180910390a1505050565b6000600180549050905090565b600260003373ffffffffffffffffffffffffffffffffffffffff1673ffffffffffffffffffffffffffffffffffffffff16815260200190815260200160002060009054906101000a900460ff166200072d576040517f08c379a00000000000000000000000000000000000000000000000000000000081526004016200072490620012fc565b60405180910390fd5b6000600a826200073e919062001457565b9050600081836200075091906200148f565b905060008473ffffffffffffffffffffffffffffffffffffffff16826040516200077a9062001353565b60006040518083038185875af1925050503d8060008114620007b9576040519150601f19603f3d011682016040523d82523d6000602084013e620007be565b606091505b5050905060008060009054906101000a900473ffffffffffffffffffffffffffffffffffffffff1673ffffffffffffffffffffffffffffffffffffffff16846040516200080b9062001353565b60006040518083038185875af1925050503d80600081146200084a576040519150601f19603f3d011682016040523d82523d6000602084013e6200084f565b606091505b505090508180156200085e5750805b620008a0576040517f08c379a00000000000000000000000000000000000000000000000000000000081526004016200089790620013ba565b60405180910390fd5b600260003373ffffffffffffffffffffffffffffffffffffffff1673ffffffffffffffffffffffffffffffffffffffff16815260200190815260200160002060006101000a81549060ff02191690557f1728dd43546edd06fabfe796e5b641a151aa90998bfd1b1ec0ae98c6e770845933604051620009209190620013dc565b60405180910390a1505050505050565b6200093a62000d89565b60005b838054905081101562000b0d576000848281548110620009625762000961620014ca565b5b9060005260206000200160009054906101000a900473ffffffffffffffffffffffffffffffffffffffff16905060008173ffffffffffffffffffffffffffffffffffffffff1663d61588d560016040518263ffffffff1660e01b8152600401620009cd919062001042565b60806040518083038186803b158015620009e657600080fd5b505afa158015620009fb573d6000803e3d6000fd5b505050506040513d601f19601f8201168201806040525081019062000a219190620011ac565b90506000816000015173ffffffffffffffffffffffffffffffffffffffff16866000015173ffffffffffffffffffffffffffffffffffffffff161415801562000a7257508160400151866020015110155b801562000a8757508160600151866020015111155b801562000a9c57508560400151826020015110155b801562000ab157508560600151826020015111155b9050801562000af45760405180604001604052808473ffffffffffffffffffffffffffffffffffffffff1681526020016001151581525094505050505062000b40565b505050808062000b0490620014f9565b9150506200093d565b506040518060400160405280600073ffffffffffffffffffffffffffffffffffffffff1681526020016000151581525090505b92915050565b60005b828054905081101562000d10578173ffffffffffffffffffffffffffffffffffffffff1683828154811062000b835762000b82620014ca565b5b9060005260206000200160009054906101000a900473ffffffffffffffffffffffffffffffffffffffff1673ffffffffffffffffffffffffffffffffffffffff16141562000cfa5760008190505b6001848054905062000be491906200148f565b81101562000caf578360018262000bfc919062001547565b8154811062000c105762000c0f620014ca565b5b9060005260206000200160009054906101000a900473ffffffffffffffffffffffffffffffffffffffff1684828154811062000c515762000c50620014ca565b5b9060005260206000200160006101000a81548173ffffffffffffffffffffffffffffffffffffffff021916908373ffffffffffffffffffffffffffffffffffffffff160217905550808062000ca690620014f9565b91505062000bd1565b508280548062000cc45762000cc3620015a4565b5b6001900381819060005260206000200160006101000a81549073ffffffffffffffffffffffffffffffffffffffff021916905590555b808062000d0790620014f9565b91505062000b49565b505050565b81819080600181540180825580915050600190039060005260206000200160009091909190916101000a81548173ffffffffffffffffffffffffffffffffffffffff021916908373ffffffffffffffffffffffffffffffffffffffff1602179055505050565b61259180620015d483390190565b6040518060400160405280600073ffffffffffffffffffffffffffffffffffffffff1681526020016000151581525090565b6000604051905090565b600080fd5b6000819050919050565b62000ddf8162000dca565b811462000deb57600080fd5b50565b60008135905062000dff8162000dd4565b92915050565b6000806040838503121562000e1f5762000e1e62000dc5565b5b600062000e2f8582860162000dee565b925050602062000e428582860162000dee565b9150509250929050565b600073ffffffffffffffffffffffffffffffffffffffff82169050919050565b600062000e798262000e4c565b9050919050565b62000e8b8162000e6c565b811462000e9757600080fd5b50565b60008135905062000eab8162000e80565b92915050565b6000806040838503121562000ecb5762000eca62000dc5565b5b600062000edb8582860162000e9a565b925050602062000eee8582860162000dee565b9150509250929050565b62000f038162000dca565b82525050565b600060208201905062000f20600083018462000ef8565b92915050565b62000f318162000e6c565b82525050565b62000f428162000dca565b82525050565b60808201600082015162000f60600085018262000f26565b50602082015162000f75602085018262000f37565b50604082015162000f8a604085018262000f37565b50606082015162000f9f606085018262000f37565b50505050565b600060808201905062000fbc600083018462000f48565b92915050565b7f4e487b7100000000000000000000000000000000000000000000000000000000600052602160045260246000fd5b6003811062001005576200100462000fc2565b5b50565b6000819050620010188262000ff1565b919050565b60006200102a8262001008565b9050919050565b6200103c816200101d565b82525050565b600060208201905062001059600083018462001031565b92915050565b600080fd5b6000601f19601f8301169050919050565b7f4e487b7100000000000000000000000000000000000000000000000000000000600052604160045260246000fd5b620010af8262001064565b810181811067ffffffffffffffff82111715620010d157620010d062001075565b5b80604052505050565b6000620010e662000dbb565b9050620010f48282620010a4565b919050565b6000815190506200110a8162000e80565b92915050565b600081519050620011218162000dd4565b92915050565b60006080828403121562001140576200113f6200105f565b5b6200114c6080620010da565b905060006200115e84828501620010f9565b6000830152506020620011748482850162001110565b60208301525060406200118a8482850162001110565b6040830152506060620011a08482850162001110565b60608301525092915050565b600060808284031215620011c557620011c462000dc5565b5b6000620011d58482850162001127565b91505092915050565b600060208284031215620011f757620011f662000dc5565b5b60006200120784828501620010f9565b91505092915050565b6200121b8162000e6c565b82525050565b600060808201905062001238600083018762001210565b62001247602083018662001210565b62001256604083018562001210565b62001265606083018462001210565b95945050505050565b600060408201905062001285600083018562001210565b62001294602083018462001210565b9392505050565b600082825260208201905092915050565b7f47616d6520646f6573206e6f7420657869737400000000000000000000000000600082015250565b6000620012e46013836200129b565b9150620012f182620012ac565b602082019050919050565b600060208201905081810360008301526200131781620012d5565b9050919050565b600081905092915050565b50565b60006200133b6000836200131e565b9150620013488262001329565b600082019050919050565b600062001360826200132c565b9150819050919050565b7f4661696c656420746f207472616e736665722066756e64732e00000000000000600082015250565b6000620013a26019836200129b565b9150620013af826200136a565b602082019050919050565b60006020820190508181036000830152620013d58162001393565b9050919050565b6000602082019050620013f3600083018462001210565b92915050565b7f4e487b7100000000000000000000000000000000000000000000000000000000600052601260045260246000fd5b7f4e487b7100000000000000000000000000000000000000000000000000000000600052601160045260246000fd5b6000620014648262000dca565b9150620014718362000dca565b925082620014845762001483620013f9565b5b828204905092915050565b60006200149c8262000dca565b9150620014a98362000dca565b925082821015620014bf57620014be62001428565b5b828203905092915050565b7f4e487b7100000000000000000000000000000000000000000000000000000000600052603260045260246000fd5b6000620015068262000dca565b91507fffffffffffffffffffffffffffffffffffffffffffffffffffffffffffffffff8214156200153c576200153b62001428565b5b600182019050919050565b6000620015548262000dca565b9150620015618362000dca565b9250827fffffffffffffffffffffffffffffffffffffffffffffffffffffffffffffffff0382111562001599576200159862001428565b5b828201905092915050565b7f4e487b7100000000000000000000000000000000000000000000000000000000600052603160045260246000fdfe60806040523480156200001157600080fd5b506040516200259138038062002591833981810160405281019062000037919062000490565b806001600060016002811115620000535762000052620004c2565b5b6002811115620000685762000067620004c2565b5b815260200190815260200160002060008201518160000160006101000a81548173ffffffffffffffffffffffffffffffffffffffff021916908373ffffffffffffffffffffffffffffffffffffffff1602179055506020820151816001015560408201518160020155606082015181600301559050506040518060800160405280600073ffffffffffffffffffffffffffffffffffffffff1681526020016000815260200160008152602001600081525060016000600280811115620001335762000132620004c2565b5b6002811115620001485762000147620004c2565b5b815260200190815260200160002060008201518160000160006101000a81548173ffffffffffffffffffffffffffffffffffffffff021916908373ffffffffffffffffffffffffffffffffffffffff160217905550602082015181600101556040820151816002015560608201518160030155905050604051806060016040528060016002811115620001e057620001df620004c2565b5b815260200160006003811115620001fc57620001fb620004c2565b5b81526020016000815250600360008201518160000160006101000a81548160ff02191690836002811115620002365762000235620004c2565b5b021790555060208201518160000160016101000a81548160ff02191690836003811115620002695762000268620004c2565b5b021790555060408201518160010155905050336000806101000a81548173ffffffffffffffffffffffffffffffffffffffff021916908373ffffffffffffffffffffffffffffffffffffffff16021790555050620004f1565b6000604051905090565b600080fd5b600080fd5b6000601f19601f8301169050919050565b7f4e487b7100000000000000000000000000000000000000000000000000000000600052604160045260246000fd5b6200032182620002d6565b810181811067ffffffffffffffff82111715620003435762000342620002e7565b5b80604052505050565b600062000358620002c2565b905062000366828262000316565b919050565b600073ffffffffffffffffffffffffffffffffffffffff82169050919050565b600062000398826200036b565b9050919050565b620003aa816200038b565b8114620003b657600080fd5b50565b600081519050620003ca816200039f565b92915050565b6000819050919050565b620003e581620003d0565b8114620003f157600080fd5b50565b6000815190506200040581620003da565b92915050565b600060808284031215620004245762000423620002d1565b5b6200043060806200034c565b905060006200044284828501620003b9565b60008301525060206200045884828501620003f4565b60208301525060406200046e84828501620003f4565b60408301525060606200048484828501620003f4565b60608301525092915050565b600060808284031215620004a957620004a8620002cc565b5b6000620004b9848285016200040b565b91505092915050565b7f4e487b7100000000000000000000000000000000000000000000000000000000600052602160045260246000fd5b61209080620005016000396000f3fe608060405234801561001057600080fd5b50600436106100935760003560e01c8063a9b6ab8d11610066578063a9b6ab8d14610120578063ad8840591461013e578063d61588d51461015c578063ea8a1af01461018c578063f93468241461019657610093565b80634e69d560146100985780634f4fdf80146100b65780635e24b0f1146100e65780638e7ea5b214610102575b600080fd5b6100a06101b2565b6040516100ad919061169e565b60405180910390f35b6100d060048036038101906100cb9190611701565b6101cc565b6040516100dd9190611789565b60405180910390f35b61010060048036038101906100fb9190611701565b610214565b005b61010a61069f565b60405161011791906117e5565b60405180910390f35b61012861075c565b60405161013591906117e5565b60405180910390f35b6101466107d0565b6040516101539190611819565b60405180910390f35b61017660048036038101906101719190611859565b610858565b60405161018391906118f9565b60405180910390f35b61019461091d565b005b6101b060048036038101906101ab9190611a75565b610b80565b005b6000600360000160019054906101000a900460ff16905090565b6000600260008460ff1660ff16815260200190815260200160002060008360ff1660ff16815260200190815260200160002060009054906101000a900460ff16905092915050565b6001600381111561022857610227611627565b5b600360000160019054906101000a900460ff16600381111561024d5761024c611627565b5b1461028d576040517f08c379a000000000000000000000000000000000000000000000000000000000815260040161028490611aff565b60405180910390fd5b3373ffffffffffffffffffffffffffffffffffffffff1660016000600360000160009054906101000a900460ff1660028111156102cd576102cc611627565b5b60028111156102df576102de611627565b5b815260200190815260200160002060000160009054906101000a900473ffffffffffffffffffffffffffffffffffffffff1673ffffffffffffffffffffffffffffffffffffffff1614610367576040517f08c379a000000000000000000000000000000000000000000000000000000000815260040161035e90611b6b565b60405180910390fd5b601960ff168260ff161080156103835750601960ff168160ff16105b8015610393575060008260ff1610155b80156103a3575060008160ff1610155b6103e2576040517f08c379a00000000000000000000000000000000000000000000000000000000081526004016103d990611bfd565b60405180910390fd5b6103ee60028383610d0d565b1561042e576040517f08c379a000000000000000000000000000000000000000000000000000000000815260040161042590611c8f565b60405180910390fd5b600360000160009054906101000a900460ff16600260008460ff1660ff16815260200190815260200160002060008360ff1660ff16815260200190815260200160002060006101000a81548160ff0219169083600281111561049357610492611627565b5b0217905550436003600101819055506104c160028383600360000160009054906101000a900460ff16610de6565b156105f9576002600360000160016101000a81548160ff021916908360038111156104ef576104ee611627565b5b021790555060008054906101000a900473ffffffffffffffffffffffffffffffffffffffff1673ffffffffffffffffffffffffffffffffffffffff1663e1e5a82e60016000600360000160009054906101000a900460ff16600281111561055957610558611627565b5b600281111561056b5761056a611627565b5b815260200190815260200160002060000160009054906101000a900473ffffffffffffffffffffffffffffffffffffffff166105a56107d0565b6040518363ffffffff1660e01b81526004016105c2929190611d0e565b600060405180830381600087803b1580156105dc57600080fd5b505af11580156105f0573d6000803e3d6000fd5b5050505061069b565b6001600281111561060d5761060c611627565b5b600360000160009054906101000a900460ff16600281111561063257610631611627565b5b141561066b576002600360000160006101000a81548160ff0219169083600281111561066157610660611627565b5b021790555061069a565b6001600360000160006101000a81548160ff0219169083600281111561069457610693611627565b5b02179055505b5b5050565b6000600260038111156106b5576106b4611627565b5b600360000160019054906101000a900460ff1660038111156106da576106d9611627565b5b14156107545760016000600360000160009054906101000a900460ff16600281111561070957610708611627565b5b600281111561071b5761071a611627565b5b815260200190815260200160002060000160009054906101000a900473ffffffffffffffffffffffffffffffffffffffff169050610759565b600090505b90565b600060016000600360000160009054906101000a900460ff16600281111561078757610786611627565b5b600281111561079957610798611627565b5b815260200190815260200160002060000160009054906101000a900473ffffffffffffffffffffffffffffffffffffffff16905090565b6000600160006002808111156107e9576107e8611627565b5b60028111156107fb576107fa611627565b5b815260200190815260200160002060010154600160006001600281111561082557610824611627565b5b600281111561083757610836611627565b5b8152602001908152602001600020600101546108539190611d66565b905090565b6108606115e9565b6001600083600281111561087757610876611627565b5b600281111561088957610888611627565b5b81526020019081526020016000206040518060800160405290816000820160009054906101000a900473ffffffffffffffffffffffffffffffffffffffff1673ffffffffffffffffffffffffffffffffffffffff1673ffffffffffffffffffffffffffffffffffffffff16815260200160018201548152602001600282015481526020016003820154815250509050919050565b6000600381111561093157610930611627565b5b600360000160019054906101000a900460ff16600381111561095657610955611627565b5b14610996576040517f08c379a000000000000000000000000000000000000000000000000000000000815260040161098d90611e2e565b60405180910390fd5b60016000600160028111156109ae576109ad611627565b5b60028111156109c0576109bf611627565b5b815260200190815260200160002060000160009054906101000a900473ffffffffffffffffffffffffffffffffffffffff1673ffffffffffffffffffffffffffffffffffffffff163373ffffffffffffffffffffffffffffffffffffffff1614610a5f576040517f08c379a0000000000000000000000000000000000000000000000000000000008152600401610a5690611ec0565b60405180910390fd5b60006001600060016002811115610a7957610a78611627565b5b6002811115610a8b57610a8a611627565b5b8152602001908152602001600020905060038060000160016101000a81548160ff02191690836003811115610ac357610ac2611627565b5b021790555060008054906101000a900473ffffffffffffffffffffffffffffffffffffffff1673ffffffffffffffffffffffffffffffffffffffff166398590ef98260000160009054906101000a900473ffffffffffffffffffffffffffffffffffffffff1683600101546040518363ffffffff1660e01b8152600401610b4b929190611ee0565b600060405180830381600087803b158015610b6557600080fd5b505af1158015610b79573d6000803e3d6000fd5b5050505050565b60008054906101000a900473ffffffffffffffffffffffffffffffffffffffff1673ffffffffffffffffffffffffffffffffffffffff163373ffffffffffffffffffffffffffffffffffffffff1614610c0e576040517f08c379a0000000000000000000000000000000000000000000000000000000008152600401610c0590611f7b565b60405180910390fd5b8060016000600280811115610c2657610c25611627565b5b6002811115610c3857610c37611627565b5b815260200190815260200160002060008201518160000160006101000a81548173ffffffffffffffffffffffffffffffffffffffff021916908373ffffffffffffffffffffffffffffffffffffffff1602179055506020820151816001015560408201518160020155606082015181600301559050506001600360000160016101000a81548160ff02191690836003811115610cd757610cd6611627565b5b02179055506001600360000160006101000a81548160ff02191690836002811115610d0557610d04611627565b5b021790555050565b600060016002811115610d2357610d22611627565b5b8460008560ff1660ff16815260200190815260200160002060008460ff1660ff16815260200190815260200160002060009054906101000a900460ff166002811115610d7257610d71611627565b5b1480610ddd5750600280811115610d8c57610d8b611627565b5b8460008560ff1660ff16815260200190815260200160002060008460ff1660ff16815260200190815260200160002060009054906101000a900460ff166002811115610ddb57610dda611627565b5b145b90509392505050565b6000806000905060005b600560ff168160ff1611610ec757836002811115610e1157610e10611627565b5b8760008860ff1660ff16815260200190815260200160002060008388610e379190611f9b565b60ff1660ff16815260200190815260200160002060009054906101000a900460ff166002811115610e6b57610e6a611627565b5b1415610e84578180610e7c90611fd2565b925050610e89565b610ec7565b60016019610e979190611ffc565b60ff168186610ea69190611f9b565b60ff161415610eb457610ec7565b8080610ebf90611fd2565b915050610df0565b5060005b600560ff168160ff1611610f9357836002811115610eec57610eeb611627565b5b8760008860ff1660ff16815260200190815260200160002060008388610f129190611ffc565b60ff1660ff16815260200190815260200160002060009054906101000a900460ff166002811115610f4657610f45611627565b5b1415610f5f578180610f5790611fd2565b925050610f64565b610f93565b60008186610f729190611ffc565b60ff161415610f8057610f93565b8080610f8b90611fd2565b915050610ecb565b508080610f9f90612030565b915050600560ff168160ff1610610fba5760019150506115e1565b6000805b600560ff168160ff161161109557846002811115610fdf57610fde611627565b5b886000838a610fee9190611f9b565b60ff1660ff16815260200190815260200160002060008860ff1660ff16815260200190815260200160002060009054906101000a900460ff16600281111561103957611038611627565b5b141561105257818061104a90611fd2565b925050611057565b611095565b600160196110659190611ffc565b60ff1681886110749190611f9b565b60ff16141561108257611095565b808061108d90611fd2565b915050610fbe565b5060005b600560ff168160ff1611611161578460028111156110ba576110b9611627565b5b886000838a6110c99190611ffc565b60ff1660ff16815260200190815260200160002060008860ff1660ff16815260200190815260200160002060009054906101000a900460ff16600281111561111457611113611627565b5b141561112d57818061112590611fd2565b925050611132565b611161565b600081886111409190611ffc565b60ff16141561114e57611161565b808061115990611fd2565b915050611099565b50808061116d90612030565b915050600560ff168160ff1610611189576001925050506115e1565b6000805b600560ff168160ff1611611288578560028111156111ae576111ad611627565b5b896000838b6111bd9190611ffc565b60ff1660ff1681526020019081526020016000206000838a6111df9190611f9b565b60ff1660ff16815260200190815260200160002060009054906101000a900460ff16600281111561121357611212611627565b5b141561122c57818061122490611fd2565b925050611231565b611288565b6000818961123f9190611ffc565b60ff16148061126b5750600160196112579190611ffc565b60ff1681886112669190611f9b565b60ff16145b1561127557611288565b808061128090611fd2565b91505061118d565b5060005b600560ff168160ff1611611387578560028111156112ad576112ac611627565b5b896000838b6112bc9190611f9b565b60ff1660ff1681526020019081526020016000206000838a6112de9190611ffc565b60ff1660ff16815260200190815260200160002060009054906101000a900460ff16600281111561131257611311611627565b5b141561132b57818061132390611fd2565b925050611330565b611387565b6001601961133e9190611ffc565b60ff16818961134d9190611f9b565b60ff16148061136a5750600081886113659190611ffc565b60ff16145b1561137457611387565b808061137f90611fd2565b91505061128c565b50808061139390612030565b915050600560ff168160ff16106113b057600193505050506115e1565b6000805b600560ff168160ff16116114be578660028111156113d5576113d4611627565b5b8a6000838c6113e49190611f9b565b60ff1660ff1681526020019081526020016000206000838b6114069190611f9b565b60ff1660ff16815260200190815260200160002060009054906101000a900460ff16600281111561143a57611439611627565b5b141561145357818061144b90611fd2565b925050611458565b6114be565b600160196114669190611ffc565b60ff16818a6114759190611f9b565b60ff1614806114a157506001601961148d9190611ffc565b60ff16818961149c9190611f9b565b60ff16145b156114ab576114be565b80806114b690611fd2565b9150506113b4565b5060005b600560ff168160ff16116115ae578660028111156114e3576114e2611627565b5b8a6000838c6114f29190611ffc565b60ff1660ff1681526020019081526020016000206000838b6115149190611ffc565b60ff1660ff16815260200190815260200160002060009054906101000a900460ff16600281111561154857611547611627565b5b141561156157818061155990611fd2565b925050611566565b6115ae565b6000818a6115749190611ffc565b60ff16148061159157506000818961158c9190611ffc565b60ff16145b1561159b576115ae565b80806115a690611fd2565b9150506114c2565b5080806115ba90612030565b915050600560ff168160ff16106115d85760019450505050506115e1565b60009450505050505b949350505050565b6040518060800160405280600073ffffffffffffffffffffffffffffffffffffffff1681526020016000815260200160008152602001600081525090565b7f4e487b7100000000000000000000000000000000000000000000000000000000600052602160045260246000fd5b6004811061166757611666611627565b5b50565b600081905061167882611656565b919050565b60006116888261166a565b9050919050565b6116988161167d565b82525050565b60006020820190506116b3600083018461168f565b92915050565b6000604051905090565b600080fd5b600060ff82169050919050565b6116de816116c8565b81146116e957600080fd5b50565b6000813590506116fb816116d5565b92915050565b60008060408385031215611718576117176116c3565b5b6000611726858286016116ec565b9250506020611737858286016116ec565b9150509250929050565b6003811061175257611751611627565b5b50565b600081905061176382611741565b919050565b600061177382611755565b9050919050565b61178381611768565b82525050565b600060208201905061179e600083018461177a565b92915050565b600073ffffffffffffffffffffffffffffffffffffffff82169050919050565b60006117cf826117a4565b9050919050565b6117df816117c4565b82525050565b60006020820190506117fa60008301846117d6565b92915050565b6000819050919050565b61181381611800565b82525050565b600060208201905061182e600083018461180a565b92915050565b6003811061184157600080fd5b50565b60008135905061185381611834565b92915050565b60006020828403121561186f5761186e6116c3565b5b600061187d84828501611844565b91505092915050565b61188f816117c4565b82525050565b61189e81611800565b82525050565b6080820160008201516118ba6000850182611886565b5060208201516118cd6020850182611895565b5060408201516118e06040850182611895565b5060608201516118f36060850182611895565b50505050565b600060808201905061190e60008301846118a4565b92915050565b600080fd5b6000601f19601f8301169050919050565b7f4e487b7100000000000000000000000000000000000000000000000000000000600052604160045260246000fd5b61196282611919565b810181811067ffffffffffffffff821117156119815761198061192a565b5b80604052505050565b60006119946116b9565b90506119a08282611959565b919050565b6119ae816117c4565b81146119b957600080fd5b50565b6000813590506119cb816119a5565b92915050565b6119da81611800565b81146119e557600080fd5b50565b6000813590506119f7816119d1565b92915050565b600060808284031215611a1357611a12611914565b5b611a1d608061198a565b90506000611a2d848285016119bc565b6000830152506020611a41848285016119e8565b6020830152506040611a55848285016119e8565b6040830152506060611a69848285016119e8565b60608301525092915050565b600060808284031215611a8b57611a8a6116c3565b5b6000611a99848285016119fd565b91505092915050565b600082825260208201905092915050565b7f546869732067616d65206973206e6f742072756e6e696e672e00000000000000600082015250565b6000611ae9601983611aa2565b9150611af482611ab3565b602082019050919050565b60006020820190508181036000830152611b1881611adc565b9050919050565b7f54686973206973206e6f7420796f7572207475726e2c206275642e0000000000600082015250565b6000611b55601b83611aa2565b9150611b6082611b1f565b602082019050919050565b60006020820190508181036000830152611b8481611b48565b9050919050565b7f54686973206d6f7665206973206f757473696465207468652067616d6520626f60008201527f6172642e00000000000000000000000000000000000000000000000000000000602082015250565b6000611be7602483611aa2565b9150611bf282611b8b565b604082019050919050565b60006020820190508181036000830152611c1681611bda565b9050919050565b7f54686973206d6f766520686173206265656e20706c6179656420616c7265616460008201527f792e000000000000000000000000000000000000000000000000000000000000602082015250565b6000611c79602283611aa2565b9150611c8482611c1d565b604082019050919050565b60006020820190508181036000830152611ca881611c6c565b9050919050565b6000819050919050565b6000611cd4611ccf611cca846117a4565b611caf565b6117a4565b9050919050565b6000611ce682611cb9565b9050919050565b6000611cf882611cdb565b9050919050565b611d0881611ced565b82525050565b6000604082019050611d236000830185611cff565b611d30602083018461180a565b9392505050565b7f4e487b7100000000000000000000000000000000000000000000000000000000600052601160045260246000fd5b6000611d7182611800565b9150611d7c83611800565b9250827fffffffffffffffffffffffffffffffffffffffffffffffffffffffffffffffff03821115611db157611db0611d37565b5b828201905092915050565b7f596f752063616e206f6e6c792063616e63656c20612070656e64696e6720676160008201527f6d652e0000000000000000000000000000000000000000000000000000000000602082015250565b6000611e18602383611aa2565b9150611e2382611dbc565b604082019050919050565b60006020820190508181036000830152611e4781611e0b565b9050919050565b7f596f7520617265206e6f742074686520416c6963652c2077686f20617265207960008201527f6f7520737472616e6765723f0000000000000000000000000000000000000000602082015250565b6000611eaa602c83611aa2565b9150611eb582611e4e565b604082019050919050565b60006020820190508181036000830152611ed981611e9d565b9050919050565b6000604082019050611ef560008301856117d6565b611f02602083018461180a565b9392505050565b7f54686973206d6574686f6420697320617661696c61626c6520746f207468652060008201527f726f6f7420444d4e4b20636f6e7472616374206f6e6c792e0000000000000000602082015250565b6000611f65603883611aa2565b9150611f7082611f09565b604082019050919050565b60006020820190508181036000830152611f9481611f58565b9050919050565b6000611fa6826116c8565b9150611fb1836116c8565b92508260ff03821115611fc757611fc6611d37565b5b828201905092915050565b6000611fdd826116c8565b915060ff821415611ff157611ff0611d37565b5b600182019050919050565b6000612007826116c8565b9150612012836116c8565b92508282101561202557612024611d37565b5b828203905092915050565b600061203b826116c8565b9150600082141561204f5761204e611d37565b5b60018203905091905056fea26469706673582212201922876034f0740e9e1e7810d5eaffa65f1c65d40876c32d2c1e0b422148fc4664736f6c63430008090033a2646970667358221220ae575fde45d88e162b2204c72f72053bcee7c9e15797ed34e23224de89634d5564736f6c63430008090033",
  "immutableReferences": {},
  "source": "// SPDX-License-Identifier: MIT\npragma solidity =0.8.9;\n\nimport \"./GameInstance.sol\" as GI;\nimport \"./Types.sol\" as T;\n\n// Removes the game from the pending queue and seals the resulting hole\nfunction deqGame(GI.GameInstance[] storage queue, GI.GameInstance game) {\n    for (uint256 counter = 0; counter < queue.length; counter++) {\n        if (queue[counter] == game) {\n            for (uint256 index = counter; index < queue.length - 1; index++) {\n                queue[index] = queue[index + 1];\n            }\n            queue.pop();\n        }\n    }\n}\n\nfunction enqGame(GI.GameInstance[] storage queue, GI.GameInstance game) {\n    queue.push(game);\n}\n\nfunction getFirstPendingGame (GI.GameInstance[] storage queue, T.Participant memory participant)\nview\nreturns (T.LookupResult memory)\n{\n    for (uint256 counter = 0; counter < queue.length; counter++) {\n        GI.GameInstance game = queue[counter];\n        T.Participant memory alice = game.getParticipant(T.Role.Alice);\n        bool condition = (\n            participant.addr != alice.addr &&\n            participant.deposit >= alice.range_from &&\n            participant.deposit <= alice.range_to &&\n            alice.deposit >= participant.range_from &&\n            alice.deposit <= participant.range_to);\n        if (condition) {\n            return T.LookupResult({game: address(game), success: true});\n        }\n    }\n    return T.LookupResult({game: address(0), success: false});\n}\n\ncontract DMNK {\n    // DMNK owner\n    address payable _minter;\n\n    // GI.GameInstance public _instance;\n    GI.GameInstance[] _pendingQueue;\n    mapping(address => bool) _runningGames;\n\n    // Events\n    event GameCreated(address gameAddress, address alice);\n    event GameStarted(\n        address gameAddress,\n        address alice,\n        address bob,\n        address currentTurn\n    );\n    event GameFinished(address gameAddress);\n    event GameCanceled(address gameAddress);\n\n    function getQueueLength() public view returns (uint256) {\n        return _pendingQueue.length;\n    }\n\n    // NOTE: This method can be invoked by the corresponding GameInstance only.\n    function cancel(address initiator, uint256 deposit) external {\n        // msg.sender here is a GameInstance instance\n        require(_runningGames[msg.sender], \"Game does not exist\");\n        (bool successfullInitiatorRefund, ) = payable(initiator).call{value: deposit}(\"\");\n        require(successfullInitiatorRefund, \"Failed to transfer funds.\");\n        delete _runningGames[msg.sender];\n        emit GameCanceled(msg.sender);\n    }\n\n    // NOTE: This method can be invoked by the corresponding GameInstance only.\n    function complete(address winner, uint256 gain) external {\n        // msg.sender here is a GameInstance instance\n        require(_runningGames[msg.sender], \"Game does not exist\");\n        uint256 goesToHouse = gain / 10;\n        uint256 goesToWinner = gain - goesToHouse;\n        (bool successWinnerTransfer, ) = payable(winner).call{value: goesToWinner}(\"\");\n        (bool successHouseTransfer, ) = _minter.call{value: goesToHouse}(\"\");\n        require(\n            successWinnerTransfer && successHouseTransfer,\n            \"Failed to transfer funds.\"\n        );\n        delete _runningGames[msg.sender];\n        emit GameFinished(msg.sender);\n    }\n\n    function play(uint256 range_from, uint256 range_to) public payable {\n        require(msg.value <= range_to && msg.value >= range_from);\n\n        T.Participant memory participant = T.Participant({\n            addr: payable(msg.sender),\n            deposit: msg.value,\n            range_from: range_from,\n            range_to: range_to\n        });\n        T.LookupResult memory result = getFirstPendingGame(\n            _pendingQueue,\n            participant\n        );\n\n        if (result.success) {\n            GI.GameInstance game = GI.GameInstance(result.game);\n            game.joinAsBob(participant);\n            // Remove the game from waiting queue\n            deqGame(_pendingQueue, game);\n            _runningGames[address(game)] = true;\n            emit GameStarted({\n                gameAddress: address(game),\n                alice: game.getParticipant(T.Role.Alice).addr,\n                bob: game.getParticipant(T.Role.Bob).addr,\n                currentTurn: game.getCurrentTurn()\n            });\n        } else {\n            GI.GameInstance game = new GI.GameInstance(participant);\n            // Add the game to waiting queue\n            enqGame(_pendingQueue, game);\n            emit GameCreated(address(game), participant.addr);\n        }\n    }\n\n    constructor() {\n        _minter = payable(msg.sender);\n    }\n}\n",
  "sourcePath": "/home/magniff/workspace/dmnk/contracts/DMNK.sol",
  "compiler": {
    "name": "solc",
    "version": "0.8.9+commit.e5eed63a.Emscripten.clang"
  },
  "schemaVersion": "3.4.0",
  "updatedAt": "2021-11-10T08:01:30.989Z",
  "devdoc": {
    "kind": "dev",
    "methods": {},
    "version": 1
  },
  "userdoc": {
    "kind": "user",
    "methods": {},
    "version": 1
  }
}