{
  "contractName": "GameInstance",
  "abi": [
    {
      "inputs": [
        {
          "components": [
            {
              "components": [
                {
                  "internalType": "address payable",
                  "name": "main",
                  "type": "address"
                },
                {
                  "internalType": "address",
                  "name": "operational",
                  "type": "address"
                }
              ],
              "internalType": "struct AddressPair",
              "name": "addresses",
              "type": "tuple"
            },
            {
              "internalType": "uint256",
              "name": "deposit",
              "type": "uint256"
            },
            {
              "internalType": "uint256",
              "name": "range_from",
              "type": "uint256"
            },
            {
              "internalType": "uint256",
              "name": "range_to",
              "type": "uint256"
            }
          ],
          "internalType": "struct Participant",
          "name": "alice",
          "type": "tuple"
        }
      ],
      "stateMutability": "nonpayable",
      "type": "constructor"
    },
    {
      "inputs": [],
      "name": "getCurrentTurn",
      "outputs": [
        {
          "internalType": "address",
          "name": "",
          "type": "address"
        }
      ],
      "stateMutability": "view",
      "type": "function"
    },
    {
      "inputs": [],
      "name": "getWinner",
      "outputs": [
        {
          "internalType": "address",
          "name": "",
          "type": "address"
        }
      ],
      "stateMutability": "view",
      "type": "function"
    },
    {
      "inputs": [
        {
          "internalType": "uint8",
          "name": "x",
          "type": "uint8"
        },
        {
          "internalType": "uint8",
          "name": "y",
          "type": "uint8"
        }
      ],
      "name": "getCell",
      "outputs": [
        {
          "internalType": "enum Role",
          "name": "",
          "type": "uint8"
        }
      ],
      "stateMutability": "view",
      "type": "function"
    },
    {
      "inputs": [
        {
          "internalType": "enum Role",
          "name": "role",
          "type": "uint8"
        }
      ],
      "name": "getParticipant",
      "outputs": [
        {
          "components": [
            {
              "components": [
                {
                  "internalType": "address payable",
                  "name": "main",
                  "type": "address"
                },
                {
                  "internalType": "address",
                  "name": "operational",
                  "type": "address"
                }
              ],
              "internalType": "struct AddressPair",
              "name": "addresses",
              "type": "tuple"
            },
            {
              "internalType": "uint256",
              "name": "deposit",
              "type": "uint256"
            },
            {
              "internalType": "uint256",
              "name": "range_from",
              "type": "uint256"
            },
            {
              "internalType": "uint256",
              "name": "range_to",
              "type": "uint256"
            }
          ],
          "internalType": "struct Participant",
          "name": "",
          "type": "tuple"
        }
      ],
      "stateMutability": "view",
      "type": "function"
    },
    {
      "inputs": [],
      "name": "getStatus",
      "outputs": [
        {
          "internalType": "enum GameStatus",
          "name": "",
          "type": "uint8"
        }
      ],
      "stateMutability": "view",
      "type": "function"
    },
    {
      "inputs": [],
      "name": "getLockedValue",
      "outputs": [
        {
          "internalType": "uint256",
          "name": "",
          "type": "uint256"
        }
      ],
      "stateMutability": "view",
      "type": "function"
    },
    {
      "inputs": [
        {
          "internalType": "uint8",
          "name": "x",
          "type": "uint8"
        },
        {
          "internalType": "uint8",
          "name": "y",
          "type": "uint8"
        }
      ],
      "name": "makeMove",
      "outputs": [],
      "stateMutability": "nonpayable",
      "type": "function"
    },
    {
      "inputs": [
        {
          "components": [
            {
              "components": [
                {
                  "internalType": "address payable",
                  "name": "main",
                  "type": "address"
                },
                {
                  "internalType": "address",
                  "name": "operational",
                  "type": "address"
                }
              ],
              "internalType": "struct AddressPair",
              "name": "addresses",
              "type": "tuple"
            },
            {
              "internalType": "uint256",
              "name": "deposit",
              "type": "uint256"
            },
            {
              "internalType": "uint256",
              "name": "range_from",
              "type": "uint256"
            },
            {
              "internalType": "uint256",
              "name": "range_to",
              "type": "uint256"
            }
          ],
          "internalType": "struct Participant",
          "name": "participant",
          "type": "tuple"
        }
      ],
      "name": "joinAsBob",
      "outputs": [],
      "stateMutability": "nonpayable",
      "type": "function"
    },
    {
      "inputs": [],
      "name": "cancel",
      "outputs": [],
      "stateMutability": "nonpayable",
      "type": "function"
    }
  ],
  "bytecode": "0x60806040523480156200001157600080fd5b5060405162002855380380620028558339818101604052810190620000379190620005fd565b8060016000600160028111156200005357620000526200062f565b5b60028111156200006857620000676200062f565b5b815260200190815260200160002060008201518160000160008201518160000160006101000a81548173ffffffffffffffffffffffffffffffffffffffff021916908373ffffffffffffffffffffffffffffffffffffffff16021790555060208201518160010160006101000a81548173ffffffffffffffffffffffffffffffffffffffff021916908373ffffffffffffffffffffffffffffffffffffffff160217905550505060208201518160020155604082015181600301556060820151816004015590505060405180608001604052806040518060400160405280600073ffffffffffffffffffffffffffffffffffffffff168152602001600073ffffffffffffffffffffffffffffffffffffffff1681525081526020016000815260200160008152602001600081525060016000600280811115620001b057620001af6200062f565b5b6002811115620001c557620001c46200062f565b5b815260200190815260200160002060008201518160000160008201518160000160006101000a81548173ffffffffffffffffffffffffffffffffffffffff021916908373ffffffffffffffffffffffffffffffffffffffff16021790555060208201518160010160006101000a81548173ffffffffffffffffffffffffffffffffffffffff021916908373ffffffffffffffffffffffffffffffffffffffff1602179055505050602082015181600201556040820151816003015560608201518160040155905050604051806060016040528060016002811115620002af57620002ae6200062f565b5b815260200160006003811115620002cb57620002ca6200062f565b5b81526020016000815250600360008201518160000160006101000a81548160ff021916908360028111156200030557620003046200062f565b5b021790555060208201518160000160016101000a81548160ff021916908360038111156200033857620003376200062f565b5b021790555060408201518160010155905050336000806101000a81548173ffffffffffffffffffffffffffffffffffffffff021916908373ffffffffffffffffffffffffffffffffffffffff160217905550506200065e565b6000604051905090565b600080fd5b600080fd5b6000601f19601f8301169050919050565b7f4e487b7100000000000000000000000000000000000000000000000000000000600052604160045260246000fd5b620003f082620003a5565b810181811067ffffffffffffffff82111715620004125762000411620003b6565b5b80604052505050565b60006200042762000391565b9050620004358282620003e5565b919050565b600073ffffffffffffffffffffffffffffffffffffffff82169050919050565b600062000467826200043a565b9050919050565b62000479816200045a565b81146200048557600080fd5b50565b60008151905062000499816200046e565b92915050565b6000620004ac826200043a565b9050919050565b620004be816200049f565b8114620004ca57600080fd5b50565b600081519050620004de81620004b3565b92915050565b600060408284031215620004fd57620004fc620003a0565b5b6200050960406200041b565b905060006200051b8482850162000488565b60008301525060206200053184828501620004cd565b60208301525092915050565b6000819050919050565b62000552816200053d565b81146200055e57600080fd5b50565b600081519050620005728162000547565b92915050565b600060a08284031215620005915762000590620003a0565b5b6200059d60806200041b565b90506000620005af84828501620004e4565b6000830152506040620005c58482850162000561565b6020830152506060620005db8482850162000561565b6040830152506080620005f18482850162000561565b60608301525092915050565b600060a082840312156200061657620006156200039b565b5b6000620006268482850162000578565b91505092915050565b7f4e487b7100000000000000000000000000000000000000000000000000000000600052602160045260246000fd5b6121e7806200066e6000396000f3fe608060405234801561001057600080fd5b50600436106100935760003560e01c80638e7ea5b2116100665780638e7ea5b21461011e578063a9b6ab8d1461013c578063ad8840591461015a578063d61588d514610178578063ea8a1af0146101a857610093565b8063132a20bb146100985780634e69d560146100b45780634f4fdf80146100d25780635e24b0f114610102575b600080fd5b6100b260048036038101906100ad9190611965565b6101b2565b005b6100bc610391565b6040516100c99190611a09565b60405180910390f35b6100ec60048036038101906100e79190611a5d565b6103ab565b6040516100f99190611ae5565b60405180910390f35b61011c60048036038101906101179190611a5d565b6103f3565b005b610126610884565b6040516101339190611b0f565b60405180910390f35b610144610944565b6040516101519190611b0f565b60405180910390f35b6101626109bb565b60405161016f9190611b39565b60405180910390f35b610192600480360381019061018d9190611b79565b610a43565b60405161019f9190611c57565b60405180910390f35b6101b0610b72565b005b60008054906101000a900473ffffffffffffffffffffffffffffffffffffffff1673ffffffffffffffffffffffffffffffffffffffff163373ffffffffffffffffffffffffffffffffffffffff1614610240576040517f08c379a000000000000000000000000000000000000000000000000000000000815260040161023790611cf5565b60405180910390fd5b806001600060028081111561025857610257611992565b5b600281111561026a57610269611992565b5b815260200190815260200160002060008201518160000160008201518160000160006101000a81548173ffffffffffffffffffffffffffffffffffffffff021916908373ffffffffffffffffffffffffffffffffffffffff16021790555060208201518160010160006101000a81548173ffffffffffffffffffffffffffffffffffffffff021916908373ffffffffffffffffffffffffffffffffffffffff16021790555050506020820151816002015560408201518160030155606082015181600401559050506001600360000160016101000a81548160ff0219169083600381111561035b5761035a611992565b5b02179055506001600360000160006101000a81548160ff0219169083600281111561038957610388611992565b5b021790555050565b6000600360000160019054906101000a900460ff16905090565b6000600260008460ff1660ff16815260200190815260200160002060008360ff1660ff16815260200190815260200160002060009054906101000a900460ff16905092915050565b6001600381111561040757610406611992565b5b600360000160019054906101000a900460ff16600381111561042c5761042b611992565b5b1461046c576040517f08c379a000000000000000000000000000000000000000000000000000000000815260040161046390611d61565b60405180910390fd5b3373ffffffffffffffffffffffffffffffffffffffff1660016000600360000160009054906101000a900460ff1660028111156104ac576104ab611992565b5b60028111156104be576104bd611992565b5b815260200190815260200160002060000160010160009054906101000a900473ffffffffffffffffffffffffffffffffffffffff1673ffffffffffffffffffffffffffffffffffffffff1614610549576040517f08c379a000000000000000000000000000000000000000000000000000000000815260040161054090611dcd565b60405180910390fd5b601960ff168260ff161080156105655750601960ff168160ff16105b8015610575575060008260ff1610155b8015610585575060008160ff1610155b6105c4576040517f08c379a00000000000000000000000000000000000000000000000000000000081526004016105bb90611e5f565b60405180910390fd5b6105d060028383610ddb565b15610610576040517f08c379a000000000000000000000000000000000000000000000000000000000815260040161060790611ef1565b60405180910390fd5b600360000160009054906101000a900460ff16600260008460ff1660ff16815260200190815260200160002060008360ff1660ff16815260200190815260200160002060006101000a81548160ff0219169083600281111561067557610674611992565b5b0217905550436003600101819055506106a360028383600360000160009054906101000a900460ff16610eb4565b156107de576002600360000160016101000a81548160ff021916908360038111156106d1576106d0611992565b5b021790555060008054906101000a900473ffffffffffffffffffffffffffffffffffffffff1673ffffffffffffffffffffffffffffffffffffffff1663e1e5a82e60016000600360000160009054906101000a900460ff16600281111561073b5761073a611992565b5b600281111561074d5761074c611992565b5b815260200190815260200160002060000160000160009054906101000a900473ffffffffffffffffffffffffffffffffffffffff1661078a6109bb565b6040518363ffffffff1660e01b81526004016107a7929190611f20565b600060405180830381600087803b1580156107c157600080fd5b505af11580156107d5573d6000803e3d6000fd5b50505050610880565b600160028111156107f2576107f1611992565b5b600360000160009054906101000a900460ff16600281111561081757610816611992565b5b1415610850576002600360000160006101000a81548160ff0219169083600281111561084657610845611992565b5b021790555061087f565b6001600360000160006101000a81548160ff0219169083600281111561087957610878611992565b5b02179055505b5b5050565b60006002600381111561089a57610899611992565b5b600360000160019054906101000a900460ff1660038111156108bf576108be611992565b5b141561093c5760016000600360000160009054906101000a900460ff1660028111156108ee576108ed611992565b5b6002811115610900576108ff611992565b5b815260200190815260200160002060000160000160009054906101000a900473ffffffffffffffffffffffffffffffffffffffff169050610941565b600090505b90565b600060016000600360000160009054906101000a900460ff16600281111561096f5761096e611992565b5b600281111561098157610980611992565b5b815260200190815260200160002060000160000160009054906101000a900473ffffffffffffffffffffffffffffffffffffffff16905090565b6000600160006002808111156109d4576109d3611992565b5b60028111156109e6576109e5611992565b5b8152602001908152602001600020600201546001600060016002811115610a1057610a0f611992565b5b6002811115610a2257610a21611992565b5b815260200190815260200160002060020154610a3e9190611f78565b905090565b610a4b6116b7565b60016000836002811115610a6257610a61611992565b5b6002811115610a7457610a73611992565b5b8152602001908152602001600020604051806080016040529081600082016040518060400160405290816000820160009054906101000a900473ffffffffffffffffffffffffffffffffffffffff1673ffffffffffffffffffffffffffffffffffffffff1673ffffffffffffffffffffffffffffffffffffffff1681526020016001820160009054906101000a900473ffffffffffffffffffffffffffffffffffffffff1673ffffffffffffffffffffffffffffffffffffffff1673ffffffffffffffffffffffffffffffffffffffff1681525050815260200160028201548152602001600382015481526020016004820154815250509050919050565b60006003811115610b8657610b85611992565b5b600360000160019054906101000a900460ff166003811115610bab57610baa611992565b5b14610beb576040517f08c379a0000000000000000000000000000000000000000000000000000000008152600401610be290612040565b60405180910390fd5b6001600060016002811115610c0357610c02611992565b5b6002811115610c1557610c14611992565b5b815260200190815260200160002060000160000160009054906101000a900473ffffffffffffffffffffffffffffffffffffffff1673ffffffffffffffffffffffffffffffffffffffff163373ffffffffffffffffffffffffffffffffffffffff1614610cb7576040517f08c379a0000000000000000000000000000000000000000000000000000000008152600401610cae906120d2565b60405180910390fd5b60006001600060016002811115610cd157610cd0611992565b5b6002811115610ce357610ce2611992565b5b8152602001908152602001600020905060038060000160016101000a81548160ff02191690836003811115610d1b57610d1a611992565b5b021790555060008054906101000a900473ffffffffffffffffffffffffffffffffffffffff1673ffffffffffffffffffffffffffffffffffffffff166398590ef98260000160000160009054906101000a900473ffffffffffffffffffffffffffffffffffffffff1683600201546040518363ffffffff1660e01b8152600401610da6929190611f20565b600060405180830381600087803b158015610dc057600080fd5b505af1158015610dd4573d6000803e3d6000fd5b5050505050565b600060016002811115610df157610df0611992565b5b8460008560ff1660ff16815260200190815260200160002060008460ff1660ff16815260200190815260200160002060009054906101000a900460ff166002811115610e4057610e3f611992565b5b1480610eab5750600280811115610e5a57610e59611992565b5b8460008560ff1660ff16815260200190815260200160002060008460ff1660ff16815260200190815260200160002060009054906101000a900460ff166002811115610ea957610ea8611992565b5b145b90509392505050565b6000806000905060005b600560ff168160ff1611610f9557836002811115610edf57610ede611992565b5b8760008860ff1660ff16815260200190815260200160002060008388610f0591906120f2565b60ff1660ff16815260200190815260200160002060009054906101000a900460ff166002811115610f3957610f38611992565b5b1415610f52578180610f4a90612129565b925050610f57565b610f95565b60016019610f659190612153565b60ff168186610f7491906120f2565b60ff161415610f8257610f95565b8080610f8d90612129565b915050610ebe565b5060005b600560ff168160ff161161106157836002811115610fba57610fb9611992565b5b8760008860ff1660ff16815260200190815260200160002060008388610fe09190612153565b60ff1660ff16815260200190815260200160002060009054906101000a900460ff16600281111561101457611013611992565b5b141561102d57818061102590612129565b925050611032565b611061565b600081866110409190612153565b60ff16141561104e57611061565b808061105990612129565b915050610f99565b50808061106d90612187565b915050600560ff168160ff16106110885760019150506116af565b6000805b600560ff168160ff1611611163578460028111156110ad576110ac611992565b5b886000838a6110bc91906120f2565b60ff1660ff16815260200190815260200160002060008860ff1660ff16815260200190815260200160002060009054906101000a900460ff16600281111561110757611106611992565b5b141561112057818061111890612129565b925050611125565b611163565b600160196111339190612153565b60ff16818861114291906120f2565b60ff16141561115057611163565b808061115b90612129565b91505061108c565b5060005b600560ff168160ff161161122f5784600281111561118857611187611992565b5b886000838a6111979190612153565b60ff1660ff16815260200190815260200160002060008860ff1660ff16815260200190815260200160002060009054906101000a900460ff1660028111156111e2576111e1611992565b5b14156111fb5781806111f390612129565b925050611200565b61122f565b6000818861120e9190612153565b60ff16141561121c5761122f565b808061122790612129565b915050611167565b50808061123b90612187565b915050600560ff168160ff1610611257576001925050506116af565b6000805b600560ff168160ff16116113565785600281111561127c5761127b611992565b5b896000838b61128b9190612153565b60ff1660ff1681526020019081526020016000206000838a6112ad91906120f2565b60ff1660ff16815260200190815260200160002060009054906101000a900460ff1660028111156112e1576112e0611992565b5b14156112fa5781806112f290612129565b9250506112ff565b611356565b6000818961130d9190612153565b60ff1614806113395750600160196113259190612153565b60ff16818861133491906120f2565b60ff16145b1561134357611356565b808061134e90612129565b91505061125b565b5060005b600560ff168160ff16116114555785600281111561137b5761137a611992565b5b896000838b61138a91906120f2565b60ff1660ff1681526020019081526020016000206000838a6113ac9190612153565b60ff1660ff16815260200190815260200160002060009054906101000a900460ff1660028111156113e0576113df611992565b5b14156113f95781806113f190612129565b9250506113fe565b611455565b6001601961140c9190612153565b60ff16818961141b91906120f2565b60ff1614806114385750600081886114339190612153565b60ff16145b1561144257611455565b808061144d90612129565b91505061135a565b50808061146190612187565b915050600560ff168160ff161061147e57600193505050506116af565b6000805b600560ff168160ff161161158c578660028111156114a3576114a2611992565b5b8a6000838c6114b291906120f2565b60ff1660ff1681526020019081526020016000206000838b6114d491906120f2565b60ff1660ff16815260200190815260200160002060009054906101000a900460ff16600281111561150857611507611992565b5b141561152157818061151990612129565b925050611526565b61158c565b600160196115349190612153565b60ff16818a61154391906120f2565b60ff16148061156f57506001601961155b9190612153565b60ff16818961156a91906120f2565b60ff16145b156115795761158c565b808061158490612129565b915050611482565b5060005b600560ff168160ff161161167c578660028111156115b1576115b0611992565b5b8a6000838c6115c09190612153565b60ff1660ff1681526020019081526020016000206000838b6115e29190612153565b60ff1660ff16815260200190815260200160002060009054906101000a900460ff16600281111561161657611615611992565b5b141561162f57818061162790612129565b925050611634565b61167c565b6000818a6116429190612153565b60ff16148061165f57506000818961165a9190612153565b60ff16145b156116695761167c565b808061167490612129565b915050611590565b50808061168890612187565b915050600560ff168160ff16106116a65760019450505050506116af565b60009450505050505b949350505050565b60405180608001604052806116ca6116e5565b81526020016000815260200160008152602001600081525090565b6040518060400160405280600073ffffffffffffffffffffffffffffffffffffffff168152602001600073ffffffffffffffffffffffffffffffffffffffff1681525090565b6000604051905090565b600080fd5b600080fd5b6000601f19601f8301169050919050565b7f4e487b7100000000000000000000000000000000000000000000000000000000600052604160045260246000fd5b6117888261173f565b810181811067ffffffffffffffff821117156117a7576117a6611750565b5b80604052505050565b60006117ba61172b565b90506117c6828261177f565b919050565b600073ffffffffffffffffffffffffffffffffffffffff82169050919050565b60006117f6826117cb565b9050919050565b611806816117eb565b811461181157600080fd5b50565b600081359050611823816117fd565b92915050565b6000611834826117cb565b9050919050565b61184481611829565b811461184f57600080fd5b50565b6000813590506118618161183b565b92915050565b60006040828403121561187d5761187c61173a565b5b61188760406117b0565b9050600061189784828501611814565b60008301525060206118ab84828501611852565b60208301525092915050565b6000819050919050565b6118ca816118b7565b81146118d557600080fd5b50565b6000813590506118e7816118c1565b92915050565b600060a082840312156119035761190261173a565b5b61190d60806117b0565b9050600061191d84828501611867565b6000830152506040611931848285016118d8565b6020830152506060611945848285016118d8565b6040830152506080611959848285016118d8565b60608301525092915050565b600060a0828403121561197b5761197a611735565b5b6000611989848285016118ed565b91505092915050565b7f4e487b7100000000000000000000000000000000000000000000000000000000600052602160045260246000fd5b600481106119d2576119d1611992565b5b50565b60008190506119e3826119c1565b919050565b60006119f3826119d5565b9050919050565b611a03816119e8565b82525050565b6000602082019050611a1e60008301846119fa565b92915050565b600060ff82169050919050565b611a3a81611a24565b8114611a4557600080fd5b50565b600081359050611a5781611a31565b92915050565b60008060408385031215611a7457611a73611735565b5b6000611a8285828601611a48565b9250506020611a9385828601611a48565b9150509250929050565b60038110611aae57611aad611992565b5b50565b6000819050611abf82611a9d565b919050565b6000611acf82611ab1565b9050919050565b611adf81611ac4565b82525050565b6000602082019050611afa6000830184611ad6565b92915050565b611b0981611829565b82525050565b6000602082019050611b246000830184611b00565b92915050565b611b33816118b7565b82525050565b6000602082019050611b4e6000830184611b2a565b92915050565b60038110611b6157600080fd5b50565b600081359050611b7381611b54565b92915050565b600060208284031215611b8f57611b8e611735565b5b6000611b9d84828501611b64565b91505092915050565b611baf816117eb565b82525050565b611bbe81611829565b82525050565b604082016000820151611bda6000850182611ba6565b506020820151611bed6020850182611bb5565b50505050565b611bfc816118b7565b82525050565b60a082016000820151611c186000850182611bc4565b506020820151611c2b6040850182611bf3565b506040820151611c3e6060850182611bf3565b506060820151611c516080850182611bf3565b50505050565b600060a082019050611c6c6000830184611c02565b92915050565b600082825260208201905092915050565b7f54686973206d6574686f6420697320617661696c61626c6520746f207468652060008201527f726f6f7420444d4e4b20636f6e7472616374206f6e6c792e0000000000000000602082015250565b6000611cdf603883611c72565b9150611cea82611c83565b604082019050919050565b60006020820190508181036000830152611d0e81611cd2565b9050919050565b7f546869732067616d65206973206e6f742072756e6e696e672e00000000000000600082015250565b6000611d4b601983611c72565b9150611d5682611d15565b602082019050919050565b60006020820190508181036000830152611d7a81611d3e565b9050919050565b7f54686973206973206e6f7420796f7572207475726e2c206275642e0000000000600082015250565b6000611db7601b83611c72565b9150611dc282611d81565b602082019050919050565b60006020820190508181036000830152611de681611daa565b9050919050565b7f54686973206d6f7665206973206f757473696465207468652067616d6520626f60008201527f6172642e00000000000000000000000000000000000000000000000000000000602082015250565b6000611e49602483611c72565b9150611e5482611ded565b604082019050919050565b60006020820190508181036000830152611e7881611e3c565b9050919050565b7f54686973206d6f766520686173206265656e20706c6179656420616c7265616460008201527f792e000000000000000000000000000000000000000000000000000000000000602082015250565b6000611edb602283611c72565b9150611ee682611e7f565b604082019050919050565b60006020820190508181036000830152611f0a81611ece565b9050919050565b611f1a816117eb565b82525050565b6000604082019050611f356000830185611f11565b611f426020830184611b2a565b9392505050565b7f4e487b7100000000000000000000000000000000000000000000000000000000600052601160045260246000fd5b6000611f83826118b7565b9150611f8e836118b7565b9250827fffffffffffffffffffffffffffffffffffffffffffffffffffffffffffffffff03821115611fc357611fc2611f49565b5b828201905092915050565b7f596f752063616e206f6e6c792063616e63656c20612070656e64696e6720676160008201527f6d652e0000000000000000000000000000000000000000000000000000000000602082015250565b600061202a602383611c72565b915061203582611fce565b604082019050919050565b600060208201905081810360008301526120598161201d565b9050919050565b7f596f7520617265206e6f742074686520416c6963652c2077686f20617265207960008201527f6f7520737472616e6765723f0000000000000000000000000000000000000000602082015250565b60006120bc602c83611c72565b91506120c782612060565b604082019050919050565b600060208201905081810360008301526120eb816120af565b9050919050565b60006120fd82611a24565b915061210883611a24565b92508260ff0382111561211e5761211d611f49565b5b828201905092915050565b600061213482611a24565b915060ff82141561214857612147611f49565b5b600182019050919050565b600061215e82611a24565b915061216983611a24565b92508282101561217c5761217b611f49565b5b828203905092915050565b600061219282611a24565b915060008214156121a6576121a5611f49565b5b60018203905091905056fea2646970667358221220900e09e0a466adc77afb8531592edd86d76ed751e629c8fe6e90201be4f3815864736f6c63430008090033",
  "immutableReferences": {},
  "source": "// SPDX-License-Identifier: MIT\npragma solidity =0.8.9;\n\nimport \"./DMNK.sol\";\n\nuint8 constant TOO_MANY_BLOCKS = 200;\nuint8 constant SQUARE_SIZE = 25;\nuint8 constant THRESHOLD = 5;\n\nfunction moveExists(\n    mapping(uint8 => mapping(uint8 => T.Role)) storage moves,\n    uint8 x,\n    uint8 y\n) view returns (bool) {\n    return (moves[x][y] == T.Role.Alice || moves[x][y] == T.Role.Bob);\n}\n\nfunction checkWinner(\n    mapping(uint8 => mapping(uint8 => T.Role)) storage moves,\n    uint8 x,\n    uint8 y,\n    T.Role turn\n) view returns (bool) {\n    // Check verticals\n    // 0x0\n    // 0x0\n    // 0x0\n    uint8 verticalCounter = 0;\n    for (uint8 shift = 0; shift <= THRESHOLD; shift++) {\n        if (moves[x][y + shift] == turn) {\n            verticalCounter++;\n        } else {\n            break;\n        }\n        if (y + shift == SQUARE_SIZE - 1) {\n            break;\n        }\n    }\n    for (uint8 shift = 0; shift <= THRESHOLD; shift++) {\n        if (moves[x][y - shift] == turn) {\n            verticalCounter++;\n        } else {\n            break;\n        }\n        if (y - shift == 0) {\n            break;\n        }\n    }\n    verticalCounter--;\n    if (verticalCounter >= THRESHOLD) {\n        return true;\n    }\n\n    // Check horizontals\n    // 000\n    // xxx\n    // 000\n    uint8 horizontalCounter = 0;\n    for (uint8 shift = 0; shift <= THRESHOLD; shift++) {\n        if (moves[x + shift][y] == turn) {\n            horizontalCounter++;\n        } else {\n            break;\n        }\n        if (x + shift == SQUARE_SIZE - 1) {\n            break;\n        }\n    }\n    for (uint8 shift = 0; shift <= THRESHOLD; shift++) {\n        if (moves[x - shift][y] == turn) {\n            horizontalCounter++;\n        } else {\n            break;\n        }\n        if (x - shift == 0) {\n            break;\n        }\n    }\n    horizontalCounter--;\n    if (horizontalCounter >= THRESHOLD) {\n        return true;\n    }\n\n    // Check first diagonal\n    // x00\n    // 0x0\n    // 00x\n    uint8 firstDiagonalCounter = 0;\n    for (uint8 shift = 0; shift <= THRESHOLD; shift++) {\n        if (moves[x - shift][y + shift] == turn) {\n            firstDiagonalCounter++;\n        } else {\n            break;\n        }\n        if ((x - shift == 0) || (y + shift == SQUARE_SIZE - 1)) {\n            break;\n        }\n    }\n    for (uint8 shift = 0; shift <= THRESHOLD; shift++) {\n        if (moves[x + shift][y - shift] == turn) {\n            firstDiagonalCounter++;\n        } else {\n            break;\n        }\n        if ((x + shift == SQUARE_SIZE - 1) || (y - shift == 0)) {\n            break;\n        }\n    }\n    firstDiagonalCounter--;\n    if (firstDiagonalCounter >= THRESHOLD) {\n        return true;\n    }\n\n    // Check second diagonal\n    // 00x\n    // 0x0\n    // x00\n    uint8 secondDiagonalCounter = 0;\n    for (uint8 shift = 0; shift <= THRESHOLD; shift++) {\n        if (moves[x + shift][y + shift] == turn) {\n            secondDiagonalCounter++;\n        } else {\n            break;\n        }\n        if ((x + shift == SQUARE_SIZE - 1) || (y + shift == SQUARE_SIZE - 1)) {\n            break;\n        }\n    }\n    for (uint8 shift = 0; shift <= THRESHOLD; shift++) {\n        if (moves[x - shift][y - shift] == turn) {\n            secondDiagonalCounter++;\n        } else {\n            break;\n        }\n        if ((x - shift == 0) || (y - shift == 0)) {\n            break;\n        }\n    }\n    secondDiagonalCounter--;\n    if (secondDiagonalCounter >= THRESHOLD) {\n        return true;\n    }\n\n    return false;\n}\n\ncontract GameInstance {\n    // Higher level contract\n    DMNK private _parent;\n\n    // Players\n    mapping(T.Role => T.Participant) private _participants;\n    mapping(uint8 => mapping(uint8 => T.Role)) private _moves;\n\n    T.State private _state;\n\n    modifier fromDMNK() {\n        require(\n            msg.sender == address(_parent),\n            \"This method is available to the root DMNK contract only.\"\n        );\n        _;\n    }\n\n    // Get the main address of the current turn\n    function getCurrentTurn() external view returns (address) {\n        return _participants[_state.currentTurn].addresses.main;\n    }\n\n    function getWinner() external view returns (address) {\n        if (_state.status == T.GameStatus.Complete) {\n            return _participants[_state.currentTurn].addresses.main;\n        } else {\n            return address(0);\n        }\n    }\n\n    // Get the main address of the current turn\n    function getCell(uint8 x, uint8 y) external view returns (T.Role) {\n        return _moves[x][y];\n    }\n\n    // Get the participant by one's role\n    function getParticipant(T.Role role)\n        external\n        view\n        returns (T.Participant memory)\n    {\n        return _participants[role];\n    }\n\n    // Get the game's status\n    function getStatus() external view returns (T.GameStatus) {\n        return _state.status;\n    }\n\n    // Get the the total value locked\n    function getLockedValue() public view returns (uint256) {\n        return\n            _participants[T.Role.Alice].deposit +\n            _participants[T.Role.Bob].deposit;\n    }\n\n    function makeMove(uint8 x, uint8 y) external {\n        // First check, that the game is actually running\n        require(\n            _state.status == T.GameStatus.Running,\n            \"This game is not running.\"\n        );\n        // If it is running, check that the caller is elidable to call\n        require(\n            _participants[_state.currentTurn].addresses.operational ==\n                msg.sender,\n            \"This is not your turn, bud.\"\n        );\n        // Check that the move is inbounds\n        require(\n            x < SQUARE_SIZE && y < SQUARE_SIZE && x >= 0 && y >= 0,\n            \"This move is outside the game board.\"\n        );\n        // Check that this move hasnt been done yet\n        require(\n            !moveExists(_moves, x, y),\n            \"This move has been played already.\"\n        );\n\n        // The move seems legit, let me store it\n        _moves[x][y] = _state.currentTurn;\n        _state.lastMoveBlockNum = block.number;\n\n        // Check if the current player just won the game\n        if (checkWinner(_moves, x, y, _state.currentTurn)) {\n            _state.status = T.GameStatus.Complete;\n            _parent.complete({\n                winner: payable(_participants[_state.currentTurn].addresses.main),\n                gain: getLockedValue()\n            });\n        } else {\n            // Switch the player\n            if (_state.currentTurn == T.Role.Alice) {\n                _state.currentTurn = T.Role.Bob;\n            } else {\n                _state.currentTurn = T.Role.Alice;\n            }\n        }\n    }\n\n    function joinAsBob(T.Participant memory participant) external fromDMNK {\n        _participants[T.Role.Bob] = participant;\n        _state.status = T.GameStatus.Running;\n        _state.currentTurn = T.Role.Alice;\n    }\n\n    // While game is been create and resting in pending stage, one may want\n    // to cancel it for whatever reason.\n    function cancel() external {\n        require(\n            _state.status == T.GameStatus.Pending,\n            \"You can only cancel a pending game.\"\n        );\n        require(\n            msg.sender == _participants[T.Role.Alice].addresses.main,\n            \"You are not the Alice, who are you stranger?\"\n        );\n        T.Participant storage alice = _participants[T.Role.Alice];\n        _state.status = T.GameStatus.Aborted;\n\n        // Asking the main DMNK contract to remove the game from\n        // the running map and release locked funds\n        _parent.cancel(alice.addresses.main, alice.deposit);\n    }\n\n    constructor(T.Participant memory alice) {\n        // Publisher becomes the Alice by default\n        _participants[T.Role.Alice] = alice;\n        // Store the dummy player for the Bob role\n        _participants[T.Role.Bob] = T.Participant({\n            addresses: T.AddressPair({\n                main: payable(address(0)),\n                operational: address(0)\n            }),\n            range_from: 0,\n            range_to: 0,\n            deposit: 0\n        });\n        _state = T.State({\n            currentTurn: T.Role.Alice,\n            status: T.GameStatus.Pending,\n            lastMoveBlockNum: 0\n        });\n        _parent = DMNK(msg.sender);\n    }\n}\n",
  "sourcePath": "/home/magniff/workspace/dmnk/contracts/GameInstance.sol",
  "compiler": {
    "name": "solc",
    "version": "0.8.9+commit.e5eed63a.Emscripten.clang"
  },
  "schemaVersion": "3.4.0",
  "updatedAt": "2021-11-10T06:38:36.283Z",
  "devdoc": {
    "kind": "dev",
    "methods": {},
    "version": 1
  },
  "userdoc": {
    "kind": "user",
    "methods": {},
    "version": 1
  }
}